{"contracts/SensorData.sol":{"SensorData":{"abi":[{"anonymous":false,"inputs":[{"indexed":false,"internalType":"string","name":"id","type":"string"},{"indexed":false,"internalType":"string","name":"temperature","type":"string"},{"indexed":false,"internalType":"string","name":"humidity","type":"string"},{"indexed":false,"internalType":"string","name":"waterLevel","type":"string"},{"indexed":false,"internalType":"string","name":"fireAlert","type":"string"},{"indexed":false,"internalType":"string","name":"smokeAlert","type":"string"}],"name":"SensorDataAdded","type":"event"},{"anonymous":false,"inputs":[{"indexed":false,"internalType":"string","name":"id","type":"string"},{"indexed":false,"internalType":"string","name":"temperature","type":"string"},{"indexed":false,"internalType":"string","name":"humidity","type":"string"},{"indexed":false,"internalType":"string","name":"waterLevel","type":"string"},{"indexed":false,"internalType":"string","name":"fireAlert","type":"string"},{"indexed":false,"internalType":"string","name":"smokeAlert","type":"string"}],"name":"SensorDataModified","type":"event"},{"inputs":[{"internalType":"string","name":"_id","type":"string"},{"internalType":"string","name":"_temperature","type":"string"},{"internalType":"string","name":"_humidity","type":"string"},{"internalType":"string","name":"_waterLevel","type":"string"},{"internalType":"string","name":"_fireAlert","type":"string"},{"internalType":"string","name":"_smokeAlert","type":"string"}],"name":"addSensorData","outputs":[],"stateMutability":"nonpayable","type":"function"},{"inputs":[],"name":"getSensorData","outputs":[{"internalType":"string","name":"","type":"string"}],"stateMutability":"view","type":"function"},{"inputs":[{"internalType":"string","name":"_id","type":"string"},{"internalType":"string","name":"_temperature","type":"string"},{"internalType":"string","name":"_humidity","type":"string"},{"internalType":"string","name":"_waterLevel","type":"string"},{"internalType":"string","name":"_fireAlert","type":"string"},{"internalType":"string","name":"_smokeAlert","type":"string"}],"name":"modifySensorData","outputs":[{"internalType":"bool","name":"success","type":"bool"}],"stateMutability":"nonpayable","type":"function"},{"inputs":[{"internalType":"uint256","name":"","type":"uint256"}],"name":"sensorData","outputs":[{"internalType":"string","name":"id","type":"string"},{"internalType":"string","name":"temperature","type":"string"},{"internalType":"string","name":"humidity","type":"string"},{"internalType":"string","name":"waterLevel","type":"string"},{"internalType":"string","name":"fireAlert","type":"string"},{"internalType":"string","name":"smokeAlert","type":"string"}],"stateMutability":"view","type":"function"}],"evm":{"bytecode":{"linkReferences":{},"object":"6080604052348015600f57600080fd5b506119768061001f6000396000f3fe608060405234801561001057600080fd5b506004361061004c5760003560e01c806328ef9b89146100515780637f27904114610081578063ab562a1d1461009f578063c59b0e75146100d4575b600080fd5b61006b60048036038101906100669190610e6d565b6100f0565b6040516100789190610fbd565b60405180910390f35b6100896102e3565b6040516100969190611057565b60405180910390f35b6100b960048036038101906100b491906110af565b61076f565b6040516100cb969594939291906110dc565b60405180910390f35b6100ee60048036038101906100e99190610e6d565b610aeb565b005b600080600090505b6000805490508110156102d3578760405160200161011691906111a3565b60405160208183030381529060405280519060200120600082815481106101405761013f6111ba565b5b906000526020600020906006020160000160405160200161016191906112e1565b60405160208183030381529060405280519060200120036102c6578660008281548110610191576101906111ba565b5b906000526020600020906006020160010190816101ae919061148f565b5085600082815481106101c4576101c36111ba565b5b906000526020600020906006020160020190816101e1919061148f565b5084600082815481106101f7576101f66111ba565b5b90600052602060002090600602016003019081610214919061148f565b50836000828154811061022a576102296111ba565b5b90600052602060002090600602016004019081610247919061148f565b50826000828154811061025d5761025c6111ba565b5b9060005260206000209060060201600501908161027a919061148f565b507fe5805d424caf1517b0277d7a480f7cae65be3c00e255c6732ba72ef3a1fe19c38888888888886040516102b4969594939291906110dc565b60405180910390a160019150506102d9565b80806001019150506100f8565b50600090505b9695505050505050565b606060006040518060400160405280600181526020017f5b00000000000000000000000000000000000000000000000000000000000000815250905060005b60008054905081101561071f576000808281548110610344576103436111ba565b5b90600052602060002090600602016040518060c001604052908160008201805461036d90611218565b80601f016020809104026020016040519081016040528092919081815260200182805461039990611218565b80156103e65780601f106103bb576101008083540402835291602001916103e6565b820191906000526020600020905b8154815290600101906020018083116103c957829003601f168201915b505050505081526020016001820180546103ff90611218565b80601f016020809104026020016040519081016040528092919081815260200182805461042b90611218565b80156104785780601f1061044d57610100808354040283529160200191610478565b820191906000526020600020905b81548152906001019060200180831161045b57829003601f168201915b5050505050815260200160028201805461049190611218565b80601f01602080910402602001604051908101604052809291908181526020018280546104bd90611218565b801561050a5780601f106104df5761010080835404028352916020019161050a565b820191906000526020600020905b8154815290600101906020018083116104ed57829003601f168201915b5050505050815260200160038201805461052390611218565b80601f016020809104026020016040519081016040528092919081815260200182805461054f90611218565b801561059c5780601f106105715761010080835404028352916020019161059c565b820191906000526020600020905b81548152906001019060200180831161057f57829003601f168201915b505050505081526020016004820180546105b590611218565b80601f01602080910402602001604051908101604052809291908181526020018280546105e190611218565b801561062e5780601f106106035761010080835404028352916020019161062e565b820191906000526020600020905b81548152906001019060200180831161061157829003601f168201915b5050505050815260200160058201805461064790611218565b80601f016020809104026020016040519081016040528092919081815260200182805461067390611218565b80156106c05780601f10610695576101008083540402835291602001916106c0565b820191906000526020600020905b8154815290600101906020018083116106a357829003601f168201915b505050505081525050905082816000015182602001518360400151846060015185608001518660a001516040516020016107009796959493929190611775565b6040516020818303038152906040529250508080600101915050610322565b50600181511115610746576107438160006001845161073e9190611856565b610c18565b90505b8060405160200161075791906118d6565b60405160208183030381529060405290508091505090565b6000818154811061077f57600080fd5b90600052602060002090600602016000915090508060000180546107a290611218565b80601f01602080910402602001604051908101604052809291908181526020018280546107ce90611218565b801561081b5780601f106107f05761010080835404028352916020019161081b565b820191906000526020600020905b8154815290600101906020018083116107fe57829003601f168201915b50505050509080600101805461083090611218565b80601f016020809104026020016040519081016040528092919081815260200182805461085c90611218565b80156108a95780601f1061087e576101008083540402835291602001916108a9565b820191906000526020600020905b81548152906001019060200180831161088c57829003601f168201915b5050505050908060020180546108be90611218565b80601f01602080910402602001604051908101604052809291908181526020018280546108ea90611218565b80156109375780601f1061090c57610100808354040283529160200191610937565b820191906000526020600020905b81548152906001019060200180831161091a57829003601f168201915b50505050509080600301805461094c90611218565b80601f016020809104026020016040519081016040528092919081815260200182805461097890611218565b80156109c55780601f1061099a576101008083540402835291602001916109c5565b820191906000526020600020905b8154815290600101906020018083116109a857829003601f168201915b5050505050908060040180546109da90611218565b80601f0160208091040260200160405190810160405280929190818152602001828054610a0690611218565b8015610a535780601f10610a2857610100808354040283529160200191610a53565b820191906000526020600020905b815481529060010190602001808311610a3657829003601f168201915b505050505090806005018054610a6890611218565b80601f0160208091040260200160405190810160405280929190818152602001828054610a9490611218565b8015610ae15780601f10610ab657610100808354040283529160200191610ae1565b820191906000526020600020905b815481529060010190602001808311610ac457829003601f168201915b5050505050905086565b60006040518060c0016040528088815260200187815260200186815260200185815260200184815260200183815250905060008190806001815401808255809150506001900390600052602060002090600602016000909190919091506000820151816000019081610b5d919061148f565b506020820151816001019081610b73919061148f565b506040820151816002019081610b89919061148f565b506060820151816003019081610b9f919061148f565b506080820151816004019081610bb5919061148f565b5060a0820151816005019081610bcb919061148f565b5050507f89b578248e931bb3efbfd96797869e3673e73e1e493f0c0846b4b754974de6cd878787878787604051610c07969594939291906110dc565b60405180910390a150505050505050565b6060600084905060008484610c2d9190611856565b67ffffffffffffffff811115610c4657610c45610d42565b5b6040519080825280601f01601f191660200182016040528015610c785781602001600182028036833780820191505090505b5090506000808690505b85811015610d0557838181518110610c9d57610c9c6111ba565b5b602001015160f81c60f81b838381518110610cbb57610cba6111ba565b5b60200101907effffffffffffffffffffffffffffffffffffffffffffffffffffffffffffff1916908160001a9053508180610cf5906118f8565b9250508080600101915050610c82565b508193505050509392505050565b6000604051905090565b600080fd5b600080fd5b600080fd5b600080fd5b6000601f19601f8301169050919050565b7f4e487b7100000000000000000000000000000000000000000000000000000000600052604160045260246000fd5b610d7a82610d31565b810181811067ffffffffffffffff82111715610d9957610d98610d42565b5b80604052505050565b6000610dac610d13565b9050610db88282610d71565b919050565b600067ffffffffffffffff821115610dd857610dd7610d42565b5b610de182610d31565b9050602081019050919050565b82818337600083830152505050565b6000610e10610e0b84610dbd565b610da2565b905082815260208101848484011115610e2c57610e2b610d2c565b5b610e37848285610dee565b509392505050565b600082601f830112610e5457610e53610d27565b5b8135610e64848260208601610dfd565b91505092915050565b60008060008060008060c08789031215610e8a57610e89610d1d565b5b600087013567ffffffffffffffff811115610ea857610ea7610d22565b5b610eb489828a01610e3f565b965050602087013567ffffffffffffffff811115610ed557610ed4610d22565b5b610ee189828a01610e3f565b955050604087013567ffffffffffffffff811115610f0257610f01610d22565b5b610f0e89828a01610e3f565b945050606087013567ffffffffffffffff811115610f2f57610f2e610d22565b5b610f3b89828a01610e3f565b935050608087013567ffffffffffffffff811115610f5c57610f5b610d22565b5b610f6889828a01610e3f565b92505060a087013567ffffffffffffffff811115610f8957610f88610d22565b5b610f9589828a01610e3f565b9150509295509295509295565b60008115159050919050565b610fb781610fa2565b82525050565b6000602082019050610fd26000830184610fae565b92915050565b600081519050919050565b600082825260208201905092915050565b60005b83811015611012578082015181840152602081019050610ff7565b60008484015250505050565b600061102982610fd8565b6110338185610fe3565b9350611043818560208601610ff4565b61104c81610d31565b840191505092915050565b60006020820190508181036000830152611071818461101e565b905092915050565b6000819050919050565b61108c81611079565b811461109757600080fd5b50565b6000813590506110a981611083565b92915050565b6000602082840312156110c5576110c4610d1d565b5b60006110d38482850161109a565b91505092915050565b600060c08201905081810360008301526110f6818961101e565b9050818103602083015261110a818861101e565b9050818103604083015261111e818761101e565b90508181036060830152611132818661101e565b90508181036080830152611146818561101e565b905081810360a083015261115a818461101e565b9050979650505050505050565b600081905092915050565b600061117d82610fd8565b6111878185611167565b9350611197818560208601610ff4565b80840191505092915050565b60006111af8284611172565b915081905092915050565b7f4e487b7100000000000000000000000000000000000000000000000000000000600052603260045260246000fd5b7f4e487b7100000000000000000000000000000000000000000000000000000000600052602260045260246000fd5b6000600282049050600182168061123057607f821691505b602082108103611243576112426111e9565b5b50919050565b60008190508160005260206000209050919050565b6000815461126b81611218565b6112758186611167565b9450600182166000811461129057600181146112a5576112d8565b60ff19831686528115158202860193506112d8565b6112ae85611249565b60005b838110156112d0578154818901526001820191506020810190506112b1565b838801955050505b50505092915050565b60006112ed828461125e565b915081905092915050565b60006020601f8301049050919050565b600082821b905092915050565b6000600883026113457fffffffffffffffffffffffffffffffffffffffffffffffffffffffffffffffff82611308565b61134f8683611308565b95508019841693508086168417925050509392505050565b6000819050919050565b600061138c61138761138284611079565b611367565b611079565b9050919050565b6000819050919050565b6113a683611371565b6113ba6113b282611393565b848454611315565b825550505050565b600090565b6113cf6113c2565b6113da81848461139d565b505050565b5b818110156113fe576113f36000826113c7565b6001810190506113e0565b5050565b601f8211156114435761141481611249565b61141d846112f8565b8101602085101561142c578190505b611440611438856112f8565b8301826113df565b50505b505050565b600082821c905092915050565b600061146660001984600802611448565b1980831691505092915050565b600061147f8383611455565b9150826002028217905092915050565b61149882610fd8565b67ffffffffffffffff8111156114b1576114b0610d42565b5b6114bb8254611218565b6114c6828285611402565b600060209050601f8311600181146114f957600084156114e7578287015190505b6114f18582611473565b865550611559565b601f19841661150786611249565b60005b8281101561152f5784890151825560018201915060208501945060208101905061150a565b8683101561154c5784890151611548601f891682611455565b8355505b6001600288020188555050505b505050505050565b7f7b226964223a2200000000000000000000000000000000000000000000000000600082015250565b6000611597600783611167565b91506115a282611561565b600782019050919050565b7f222c202274656d7065726174757265223a220000000000000000000000000000600082015250565b60006115e3601283611167565b91506115ee826115ad565b601282019050919050565b7f222c202268756d6964697479223a220000000000000000000000000000000000600082015250565b600061162f600f83611167565b915061163a826115f9565b600f82019050919050565b7f222c202277617465724c6576656c223a22000000000000000000000000000000600082015250565b600061167b601183611167565b915061168682611645565b601182019050919050565b7f222c202266697265416c657274223a2200000000000000000000000000000000600082015250565b60006116c7601083611167565b91506116d282611691565b601082019050919050565b7f222c2022736d6f6b65416c657274223a22000000000000000000000000000000600082015250565b6000611713601183611167565b915061171e826116dd565b601182019050919050565b7f227d2c0000000000000000000000000000000000000000000000000000000000600082015250565b600061175f600383611167565b915061176a82611729565b600382019050919050565b6000611781828a611172565b915061178c8261158a565b91506117988289611172565b91506117a3826115d6565b91506117af8288611172565b91506117ba82611622565b91506117c68287611172565b91506117d18261166e565b91506117dd8286611172565b91506117e8826116ba565b91506117f48285611172565b91506117ff82611706565b915061180b8284611172565b915061181682611752565b915081905098975050505050505050565b7f4e487b7100000000000000000000000000000000000000000000000000000000600052601160045260246000fd5b600061186182611079565b915061186c83611079565b925082820390508181111561188457611883611827565b5b92915050565b7f5d00000000000000000000000000000000000000000000000000000000000000600082015250565b60006118c0600183611167565b91506118cb8261188a565b600182019050919050565b60006118e28284611172565b91506118ed826118b3565b915081905092915050565b600061190382611079565b91507fffffffffffffffffffffffffffffffffffffffffffffffffffffffffffffffff820361193557611934611827565b5b60018201905091905056fea26469706673582212202907287f5b9216ec95b8d07bde12c33d3d71fddfeeb579e996d37cd8a0f431fe64736f6c634300081c0033","opcodes":"PUSH1 0x80 PUSH1 0x40 MSTORE CALLVALUE DUP1 ISZERO PUSH1 0xF JUMPI PUSH1 0x0 DUP1 REVERT JUMPDEST POP PUSH2 0x1976 DUP1 PUSH2 0x1F PUSH1 0x0 CODECOPY PUSH1 0x0 RETURN INVALID PUSH1 0x80 PUSH1 0x40 MSTORE CALLVALUE DUP1 ISZERO PUSH2 0x10 JUMPI PUSH1 0x0 DUP1 REVERT JUMPDEST POP PUSH1 0x4 CALLDATASIZE LT PUSH2 0x4C JUMPI PUSH1 0x0 CALLDATALOAD PUSH1 0xE0 SHR DUP1 PUSH4 0x28EF9B89 EQ PUSH2 0x51 JUMPI DUP1 PUSH4 0x7F279041 EQ PUSH2 0x81 JUMPI DUP1 PUSH4 0xAB562A1D EQ PUSH2 0x9F JUMPI DUP1 PUSH4 0xC59B0E75 EQ PUSH2 0xD4 JUMPI JUMPDEST PUSH1 0x0 DUP1 REVERT JUMPDEST PUSH2 0x6B PUSH1 0x4 DUP1 CALLDATASIZE SUB DUP2 ADD SWAP1 PUSH2 0x66 SWAP2 SWAP1 PUSH2 0xE6D JUMP JUMPDEST PUSH2 0xF0 JUMP JUMPDEST PUSH1 0x40 MLOAD PUSH2 0x78 SWAP2 SWAP1 PUSH2 0xFBD JUMP JUMPDEST PUSH1 0x40 MLOAD DUP1 SWAP2 SUB SWAP1 RETURN JUMPDEST PUSH2 0x89 PUSH2 0x2E3 JUMP JUMPDEST PUSH1 0x40 MLOAD PUSH2 0x96 SWAP2 SWAP1 PUSH2 0x1057 JUMP JUMPDEST PUSH1 0x40 MLOAD DUP1 SWAP2 SUB SWAP1 RETURN JUMPDEST PUSH2 0xB9 PUSH1 0x4 DUP1 CALLDATASIZE SUB DUP2 ADD SWAP1 PUSH2 0xB4 SWAP2 SWAP1 PUSH2 0x10AF JUMP JUMPDEST PUSH2 0x76F JUMP JUMPDEST PUSH1 0x40 MLOAD PUSH2 0xCB SWAP7 SWAP6 SWAP5 SWAP4 SWAP3 SWAP2 SWAP1 PUSH2 0x10DC JUMP JUMPDEST PUSH1 0x40 MLOAD DUP1 SWAP2 SUB SWAP1 RETURN JUMPDEST PUSH2 0xEE PUSH1 0x4 DUP1 CALLDATASIZE SUB DUP2 ADD SWAP1 PUSH2 0xE9 SWAP2 SWAP1 PUSH2 0xE6D JUMP JUMPDEST PUSH2 0xAEB JUMP JUMPDEST STOP JUMPDEST PUSH1 0x0 DUP1 PUSH1 0x0 SWAP1 POP JUMPDEST PUSH1 0x0 DUP1 SLOAD SWAP1 POP DUP2 LT ISZERO PUSH2 0x2D3 JUMPI DUP8 PUSH1 0x40 MLOAD PUSH1 0x20 ADD PUSH2 0x116 SWAP2 SWAP1 PUSH2 0x11A3 JUMP JUMPDEST PUSH1 0x40 MLOAD PUSH1 0x20 DUP2 DUP4 SUB SUB DUP2 MSTORE SWAP1 PUSH1 0x40 MSTORE DUP1 MLOAD SWAP1 PUSH1 0x20 ADD KECCAK256 PUSH1 0x0 DUP3 DUP2 SLOAD DUP2 LT PUSH2 0x140 JUMPI PUSH2 0x13F PUSH2 0x11BA JUMP JUMPDEST JUMPDEST SWAP1 PUSH1 0x0 MSTORE PUSH1 0x20 PUSH1 0x0 KECCAK256 SWAP1 PUSH1 0x6 MUL ADD PUSH1 0x0 ADD PUSH1 0x40 MLOAD PUSH1 0x20 ADD PUSH2 0x161 SWAP2 SWAP1 PUSH2 0x12E1 JUMP JUMPDEST PUSH1 0x40 MLOAD PUSH1 0x20 DUP2 DUP4 SUB SUB DUP2 MSTORE SWAP1 PUSH1 0x40 MSTORE DUP1 MLOAD SWAP1 PUSH1 0x20 ADD KECCAK256 SUB PUSH2 0x2C6 JUMPI DUP7 PUSH1 0x0 DUP3 DUP2 SLOAD DUP2 LT PUSH2 0x191 JUMPI PUSH2 0x190 PUSH2 0x11BA JUMP JUMPDEST JUMPDEST SWAP1 PUSH1 0x0 MSTORE PUSH1 0x20 PUSH1 0x0 KECCAK256 SWAP1 PUSH1 0x6 MUL ADD PUSH1 0x1 ADD SWAP1 DUP2 PUSH2 0x1AE SWAP2 SWAP1 PUSH2 0x148F JUMP JUMPDEST POP DUP6 PUSH1 0x0 DUP3 DUP2 SLOAD DUP2 LT PUSH2 0x1C4 JUMPI PUSH2 0x1C3 PUSH2 0x11BA JUMP JUMPDEST JUMPDEST SWAP1 PUSH1 0x0 MSTORE PUSH1 0x20 PUSH1 0x0 KECCAK256 SWAP1 PUSH1 0x6 MUL ADD PUSH1 0x2 ADD SWAP1 DUP2 PUSH2 0x1E1 SWAP2 SWAP1 PUSH2 0x148F JUMP JUMPDEST POP DUP5 PUSH1 0x0 DUP3 DUP2 SLOAD DUP2 LT PUSH2 0x1F7 JUMPI PUSH2 0x1F6 PUSH2 0x11BA JUMP JUMPDEST JUMPDEST SWAP1 PUSH1 0x0 MSTORE PUSH1 0x20 PUSH1 0x0 KECCAK256 SWAP1 PUSH1 0x6 MUL ADD PUSH1 0x3 ADD SWAP1 DUP2 PUSH2 0x214 SWAP2 SWAP1 PUSH2 0x148F JUMP JUMPDEST POP DUP4 PUSH1 0x0 DUP3 DUP2 SLOAD DUP2 LT PUSH2 0x22A JUMPI PUSH2 0x229 PUSH2 0x11BA JUMP JUMPDEST JUMPDEST SWAP1 PUSH1 0x0 MSTORE PUSH1 0x20 PUSH1 0x0 KECCAK256 SWAP1 PUSH1 0x6 MUL ADD PUSH1 0x4 ADD SWAP1 DUP2 PUSH2 0x247 SWAP2 SWAP1 PUSH2 0x148F JUMP JUMPDEST POP DUP3 PUSH1 0x0 DUP3 DUP2 SLOAD DUP2 LT PUSH2 0x25D JUMPI PUSH2 0x25C PUSH2 0x11BA JUMP JUMPDEST JUMPDEST SWAP1 PUSH1 0x0 MSTORE PUSH1 0x20 PUSH1 0x0 KECCAK256 SWAP1 PUSH1 0x6 MUL ADD PUSH1 0x5 ADD SWAP1 DUP2 PUSH2 0x27A SWAP2 SWAP1 PUSH2 0x148F JUMP JUMPDEST POP PUSH32 0xE5805D424CAF1517B0277D7A480F7CAE65BE3C00E255C6732BA72EF3A1FE19C3 DUP9 DUP9 DUP9 DUP9 DUP9 DUP9 PUSH1 0x40 MLOAD PUSH2 0x2B4 SWAP7 SWAP6 SWAP5 SWAP4 SWAP3 SWAP2 SWAP1 PUSH2 0x10DC JUMP JUMPDEST PUSH1 0x40 MLOAD DUP1 SWAP2 SUB SWAP1 LOG1 PUSH1 0x1 SWAP2 POP POP PUSH2 0x2D9 JUMP JUMPDEST DUP1 DUP1 PUSH1 0x1 ADD SWAP2 POP POP PUSH2 0xF8 JUMP JUMPDEST POP PUSH1 0x0 SWAP1 POP JUMPDEST SWAP7 SWAP6 POP POP POP POP POP POP JUMP JUMPDEST PUSH1 0x60 PUSH1 0x0 PUSH1 0x40 MLOAD DUP1 PUSH1 0x40 ADD PUSH1 0x40 MSTORE DUP1 PUSH1 0x1 DUP2 MSTORE PUSH1 0x20 ADD PUSH32 0x5B00000000000000000000000000000000000000000000000000000000000000 DUP2 MSTORE POP SWAP1 POP PUSH1 0x0 JUMPDEST PUSH1 0x0 DUP1 SLOAD SWAP1 POP DUP2 LT ISZERO PUSH2 0x71F JUMPI PUSH1 0x0 DUP1 DUP3 DUP2 SLOAD DUP2 LT PUSH2 0x344 JUMPI PUSH2 0x343 PUSH2 0x11BA JUMP JUMPDEST JUMPDEST SWAP1 PUSH1 0x0 MSTORE PUSH1 0x20 PUSH1 0x0 KECCAK256 SWAP1 PUSH1 0x6 MUL ADD PUSH1 0x40 MLOAD DUP1 PUSH1 0xC0 ADD PUSH1 0x40 MSTORE SWAP1 DUP2 PUSH1 0x0 DUP3 ADD DUP1 SLOAD PUSH2 0x36D SWAP1 PUSH2 0x1218 JUMP JUMPDEST DUP1 PUSH1 0x1F ADD PUSH1 0x20 DUP1 SWAP2 DIV MUL PUSH1 0x20 ADD PUSH1 0x40 MLOAD SWAP1 DUP2 ADD PUSH1 0x40 MSTORE DUP1 SWAP3 SWAP2 SWAP1 DUP2 DUP2 MSTORE PUSH1 0x20 ADD DUP3 DUP1 SLOAD PUSH2 0x399 SWAP1 PUSH2 0x1218 JUMP JUMPDEST DUP1 ISZERO PUSH2 0x3E6 JUMPI DUP1 PUSH1 0x1F LT PUSH2 0x3BB JUMPI PUSH2 0x100 DUP1 DUP4 SLOAD DIV MUL DUP4 MSTORE SWAP2 PUSH1 0x20 ADD SWAP2 PUSH2 0x3E6 JUMP JUMPDEST DUP3 ADD SWAP2 SWAP1 PUSH1 0x0 MSTORE PUSH1 0x20 PUSH1 0x0 KECCAK256 SWAP1 JUMPDEST DUP2 SLOAD DUP2 MSTORE SWAP1 PUSH1 0x1 ADD SWAP1 PUSH1 0x20 ADD DUP1 DUP4 GT PUSH2 0x3C9 JUMPI DUP3 SWAP1 SUB PUSH1 0x1F AND DUP3 ADD SWAP2 JUMPDEST POP POP POP POP POP DUP2 MSTORE PUSH1 0x20 ADD PUSH1 0x1 DUP3 ADD DUP1 SLOAD PUSH2 0x3FF SWAP1 PUSH2 0x1218 JUMP JUMPDEST DUP1 PUSH1 0x1F ADD PUSH1 0x20 DUP1 SWAP2 DIV MUL PUSH1 0x20 ADD PUSH1 0x40 MLOAD SWAP1 DUP2 ADD PUSH1 0x40 MSTORE DUP1 SWAP3 SWAP2 SWAP1 DUP2 DUP2 MSTORE PUSH1 0x20 ADD DUP3 DUP1 SLOAD PUSH2 0x42B SWAP1 PUSH2 0x1218 JUMP JUMPDEST DUP1 ISZERO PUSH2 0x478 JUMPI DUP1 PUSH1 0x1F LT PUSH2 0x44D JUMPI PUSH2 0x100 DUP1 DUP4 SLOAD DIV MUL DUP4 MSTORE SWAP2 PUSH1 0x20 ADD SWAP2 PUSH2 0x478 JUMP JUMPDEST DUP3 ADD SWAP2 SWAP1 PUSH1 0x0 MSTORE PUSH1 0x20 PUSH1 0x0 KECCAK256 SWAP1 JUMPDEST DUP2 SLOAD DUP2 MSTORE SWAP1 PUSH1 0x1 ADD SWAP1 PUSH1 0x20 ADD DUP1 DUP4 GT PUSH2 0x45B JUMPI DUP3 SWAP1 SUB PUSH1 0x1F AND DUP3 ADD SWAP2 JUMPDEST POP POP POP POP POP DUP2 MSTORE PUSH1 0x20 ADD PUSH1 0x2 DUP3 ADD DUP1 SLOAD PUSH2 0x491 SWAP1 PUSH2 0x1218 JUMP JUMPDEST DUP1 PUSH1 0x1F ADD PUSH1 0x20 DUP1 SWAP2 DIV MUL PUSH1 0x20 ADD PUSH1 0x40 MLOAD SWAP1 DUP2 ADD PUSH1 0x40 MSTORE DUP1 SWAP3 SWAP2 SWAP1 DUP2 DUP2 MSTORE PUSH1 0x20 ADD DUP3 DUP1 SLOAD PUSH2 0x4BD SWAP1 PUSH2 0x1218 JUMP JUMPDEST DUP1 ISZERO PUSH2 0x50A JUMPI DUP1 PUSH1 0x1F LT PUSH2 0x4DF JUMPI PUSH2 0x100 DUP1 DUP4 SLOAD DIV MUL DUP4 MSTORE SWAP2 PUSH1 0x20 ADD SWAP2 PUSH2 0x50A JUMP JUMPDEST DUP3 ADD SWAP2 SWAP1 PUSH1 0x0 MSTORE PUSH1 0x20 PUSH1 0x0 KECCAK256 SWAP1 JUMPDEST DUP2 SLOAD DUP2 MSTORE SWAP1 PUSH1 0x1 ADD SWAP1 PUSH1 0x20 ADD DUP1 DUP4 GT PUSH2 0x4ED JUMPI DUP3 SWAP1 SUB PUSH1 0x1F AND DUP3 ADD SWAP2 JUMPDEST POP POP POP POP POP DUP2 MSTORE PUSH1 0x20 ADD PUSH1 0x3 DUP3 ADD DUP1 SLOAD PUSH2 0x523 SWAP1 PUSH2 0x1218 JUMP JUMPDEST DUP1 PUSH1 0x1F ADD PUSH1 0x20 DUP1 SWAP2 DIV MUL PUSH1 0x20 ADD PUSH1 0x40 MLOAD SWAP1 DUP2 ADD PUSH1 0x40 MSTORE DUP1 SWAP3 SWAP2 SWAP1 DUP2 DUP2 MSTORE PUSH1 0x20 ADD DUP3 DUP1 SLOAD PUSH2 0x54F SWAP1 PUSH2 0x1218 JUMP JUMPDEST DUP1 ISZERO PUSH2 0x59C JUMPI DUP1 PUSH1 0x1F LT PUSH2 0x571 JUMPI PUSH2 0x100 DUP1 DUP4 SLOAD DIV MUL DUP4 MSTORE SWAP2 PUSH1 0x20 ADD SWAP2 PUSH2 0x59C JUMP JUMPDEST DUP3 ADD SWAP2 SWAP1 PUSH1 0x0 MSTORE PUSH1 0x20 PUSH1 0x0 KECCAK256 SWAP1 JUMPDEST DUP2 SLOAD DUP2 MSTORE SWAP1 PUSH1 0x1 ADD SWAP1 PUSH1 0x20 ADD DUP1 DUP4 GT PUSH2 0x57F JUMPI DUP3 SWAP1 SUB PUSH1 0x1F AND DUP3 ADD SWAP2 JUMPDEST POP POP POP POP POP DUP2 MSTORE PUSH1 0x20 ADD PUSH1 0x4 DUP3 ADD DUP1 SLOAD PUSH2 0x5B5 SWAP1 PUSH2 0x1218 JUMP JUMPDEST DUP1 PUSH1 0x1F ADD PUSH1 0x20 DUP1 SWAP2 DIV MUL PUSH1 0x20 ADD PUSH1 0x40 MLOAD SWAP1 DUP2 ADD PUSH1 0x40 MSTORE DUP1 SWAP3 SWAP2 SWAP1 DUP2 DUP2 MSTORE PUSH1 0x20 ADD DUP3 DUP1 SLOAD PUSH2 0x5E1 SWAP1 PUSH2 0x1218 JUMP JUMPDEST DUP1 ISZERO PUSH2 0x62E JUMPI DUP1 PUSH1 0x1F LT PUSH2 0x603 JUMPI PUSH2 0x100 DUP1 DUP4 SLOAD DIV MUL DUP4 MSTORE SWAP2 PUSH1 0x20 ADD SWAP2 PUSH2 0x62E JUMP JUMPDEST DUP3 ADD SWAP2 SWAP1 PUSH1 0x0 MSTORE PUSH1 0x20 PUSH1 0x0 KECCAK256 SWAP1 JUMPDEST DUP2 SLOAD DUP2 MSTORE SWAP1 PUSH1 0x1 ADD SWAP1 PUSH1 0x20 ADD DUP1 DUP4 GT PUSH2 0x611 JUMPI DUP3 SWAP1 SUB PUSH1 0x1F AND DUP3 ADD SWAP2 JUMPDEST POP POP POP POP POP DUP2 MSTORE PUSH1 0x20 ADD PUSH1 0x5 DUP3 ADD DUP1 SLOAD PUSH2 0x647 SWAP1 PUSH2 0x1218 JUMP JUMPDEST DUP1 PUSH1 0x1F ADD PUSH1 0x20 DUP1 SWAP2 DIV MUL PUSH1 0x20 ADD PUSH1 0x40 MLOAD SWAP1 DUP2 ADD PUSH1 0x40 MSTORE DUP1 SWAP3 SWAP2 SWAP1 DUP2 DUP2 MSTORE PUSH1 0x20 ADD DUP3 DUP1 SLOAD PUSH2 0x673 SWAP1 PUSH2 0x1218 JUMP JUMPDEST DUP1 ISZERO PUSH2 0x6C0 JUMPI DUP1 PUSH1 0x1F LT PUSH2 0x695 JUMPI PUSH2 0x100 DUP1 DUP4 SLOAD DIV MUL DUP4 MSTORE SWAP2 PUSH1 0x20 ADD SWAP2 PUSH2 0x6C0 JUMP JUMPDEST DUP3 ADD SWAP2 SWAP1 PUSH1 0x0 MSTORE PUSH1 0x20 PUSH1 0x0 KECCAK256 SWAP1 JUMPDEST DUP2 SLOAD DUP2 MSTORE SWAP1 PUSH1 0x1 ADD SWAP1 PUSH1 0x20 ADD DUP1 DUP4 GT PUSH2 0x6A3 JUMPI DUP3 SWAP1 SUB PUSH1 0x1F AND DUP3 ADD SWAP2 JUMPDEST POP POP POP POP POP DUP2 MSTORE POP POP SWAP1 POP DUP3 DUP2 PUSH1 0x0 ADD MLOAD DUP3 PUSH1 0x20 ADD MLOAD DUP4 PUSH1 0x40 ADD MLOAD DUP5 PUSH1 0x60 ADD MLOAD DUP6 PUSH1 0x80 ADD MLOAD DUP7 PUSH1 0xA0 ADD MLOAD PUSH1 0x40 MLOAD PUSH1 0x20 ADD PUSH2 0x700 SWAP8 SWAP7 SWAP6 SWAP5 SWAP4 SWAP3 SWAP2 SWAP1 PUSH2 0x1775 JUMP JUMPDEST PUSH1 0x40 MLOAD PUSH1 0x20 DUP2 DUP4 SUB SUB DUP2 MSTORE SWAP1 PUSH1 0x40 MSTORE SWAP3 POP POP DUP1 DUP1 PUSH1 0x1 ADD SWAP2 POP POP PUSH2 0x322 JUMP JUMPDEST POP PUSH1 0x1 DUP2 MLOAD GT ISZERO PUSH2 0x746 JUMPI PUSH2 0x743 DUP2 PUSH1 0x0 PUSH1 0x1 DUP5 MLOAD PUSH2 0x73E SWAP2 SWAP1 PUSH2 0x1856 JUMP JUMPDEST PUSH2 0xC18 JUMP JUMPDEST SWAP1 POP JUMPDEST DUP1 PUSH1 0x40 MLOAD PUSH1 0x20 ADD PUSH2 0x757 SWAP2 SWAP1 PUSH2 0x18D6 JUMP JUMPDEST PUSH1 0x40 MLOAD PUSH1 0x20 DUP2 DUP4 SUB SUB DUP2 MSTORE SWAP1 PUSH1 0x40 MSTORE SWAP1 POP DUP1 SWAP2 POP POP SWAP1 JUMP JUMPDEST PUSH1 0x0 DUP2 DUP2 SLOAD DUP2 LT PUSH2 0x77F JUMPI PUSH1 0x0 DUP1 REVERT JUMPDEST SWAP1 PUSH1 0x0 MSTORE PUSH1 0x20 PUSH1 0x0 KECCAK256 SWAP1 PUSH1 0x6 MUL ADD PUSH1 0x0 SWAP2 POP SWAP1 POP DUP1 PUSH1 0x0 ADD DUP1 SLOAD PUSH2 0x7A2 SWAP1 PUSH2 0x1218 JUMP JUMPDEST DUP1 PUSH1 0x1F ADD PUSH1 0x20 DUP1 SWAP2 DIV MUL PUSH1 0x20 ADD PUSH1 0x40 MLOAD SWAP1 DUP2 ADD PUSH1 0x40 MSTORE DUP1 SWAP3 SWAP2 SWAP1 DUP2 DUP2 MSTORE PUSH1 0x20 ADD DUP3 DUP1 SLOAD PUSH2 0x7CE SWAP1 PUSH2 0x1218 JUMP JUMPDEST DUP1 ISZERO PUSH2 0x81B JUMPI DUP1 PUSH1 0x1F LT PUSH2 0x7F0 JUMPI PUSH2 0x100 DUP1 DUP4 SLOAD DIV MUL DUP4 MSTORE SWAP2 PUSH1 0x20 ADD SWAP2 PUSH2 0x81B JUMP JUMPDEST DUP3 ADD SWAP2 SWAP1 PUSH1 0x0 MSTORE PUSH1 0x20 PUSH1 0x0 KECCAK256 SWAP1 JUMPDEST DUP2 SLOAD DUP2 MSTORE SWAP1 PUSH1 0x1 ADD SWAP1 PUSH1 0x20 ADD DUP1 DUP4 GT PUSH2 0x7FE JUMPI DUP3 SWAP1 SUB PUSH1 0x1F AND DUP3 ADD SWAP2 JUMPDEST POP POP POP POP POP SWAP1 DUP1 PUSH1 0x1 ADD DUP1 SLOAD PUSH2 0x830 SWAP1 PUSH2 0x1218 JUMP JUMPDEST DUP1 PUSH1 0x1F ADD PUSH1 0x20 DUP1 SWAP2 DIV MUL PUSH1 0x20 ADD PUSH1 0x40 MLOAD SWAP1 DUP2 ADD PUSH1 0x40 MSTORE DUP1 SWAP3 SWAP2 SWAP1 DUP2 DUP2 MSTORE PUSH1 0x20 ADD DUP3 DUP1 SLOAD PUSH2 0x85C SWAP1 PUSH2 0x1218 JUMP JUMPDEST DUP1 ISZERO PUSH2 0x8A9 JUMPI DUP1 PUSH1 0x1F LT PUSH2 0x87E JUMPI PUSH2 0x100 DUP1 DUP4 SLOAD DIV MUL DUP4 MSTORE SWAP2 PUSH1 0x20 ADD SWAP2 PUSH2 0x8A9 JUMP JUMPDEST DUP3 ADD SWAP2 SWAP1 PUSH1 0x0 MSTORE PUSH1 0x20 PUSH1 0x0 KECCAK256 SWAP1 JUMPDEST DUP2 SLOAD DUP2 MSTORE SWAP1 PUSH1 0x1 ADD SWAP1 PUSH1 0x20 ADD DUP1 DUP4 GT PUSH2 0x88C JUMPI DUP3 SWAP1 SUB PUSH1 0x1F AND DUP3 ADD SWAP2 JUMPDEST POP POP POP POP POP SWAP1 DUP1 PUSH1 0x2 ADD DUP1 SLOAD PUSH2 0x8BE SWAP1 PUSH2 0x1218 JUMP JUMPDEST DUP1 PUSH1 0x1F ADD PUSH1 0x20 DUP1 SWAP2 DIV MUL PUSH1 0x20 ADD PUSH1 0x40 MLOAD SWAP1 DUP2 ADD PUSH1 0x40 MSTORE DUP1 SWAP3 SWAP2 SWAP1 DUP2 DUP2 MSTORE PUSH1 0x20 ADD DUP3 DUP1 SLOAD PUSH2 0x8EA SWAP1 PUSH2 0x1218 JUMP JUMPDEST DUP1 ISZERO PUSH2 0x937 JUMPI DUP1 PUSH1 0x1F LT PUSH2 0x90C JUMPI PUSH2 0x100 DUP1 DUP4 SLOAD DIV MUL DUP4 MSTORE SWAP2 PUSH1 0x20 ADD SWAP2 PUSH2 0x937 JUMP JUMPDEST DUP3 ADD SWAP2 SWAP1 PUSH1 0x0 MSTORE PUSH1 0x20 PUSH1 0x0 KECCAK256 SWAP1 JUMPDEST DUP2 SLOAD DUP2 MSTORE SWAP1 PUSH1 0x1 ADD SWAP1 PUSH1 0x20 ADD DUP1 DUP4 GT PUSH2 0x91A JUMPI DUP3 SWAP1 SUB PUSH1 0x1F AND DUP3 ADD SWAP2 JUMPDEST POP POP POP POP POP SWAP1 DUP1 PUSH1 0x3 ADD DUP1 SLOAD PUSH2 0x94C SWAP1 PUSH2 0x1218 JUMP JUMPDEST DUP1 PUSH1 0x1F ADD PUSH1 0x20 DUP1 SWAP2 DIV MUL PUSH1 0x20 ADD PUSH1 0x40 MLOAD SWAP1 DUP2 ADD PUSH1 0x40 MSTORE DUP1 SWAP3 SWAP2 SWAP1 DUP2 DUP2 MSTORE PUSH1 0x20 ADD DUP3 DUP1 SLOAD PUSH2 0x978 SWAP1 PUSH2 0x1218 JUMP JUMPDEST DUP1 ISZERO PUSH2 0x9C5 JUMPI DUP1 PUSH1 0x1F LT PUSH2 0x99A JUMPI PUSH2 0x100 DUP1 DUP4 SLOAD DIV MUL DUP4 MSTORE SWAP2 PUSH1 0x20 ADD SWAP2 PUSH2 0x9C5 JUMP JUMPDEST DUP3 ADD SWAP2 SWAP1 PUSH1 0x0 MSTORE PUSH1 0x20 PUSH1 0x0 KECCAK256 SWAP1 JUMPDEST DUP2 SLOAD DUP2 MSTORE SWAP1 PUSH1 0x1 ADD SWAP1 PUSH1 0x20 ADD DUP1 DUP4 GT PUSH2 0x9A8 JUMPI DUP3 SWAP1 SUB PUSH1 0x1F AND DUP3 ADD SWAP2 JUMPDEST POP POP POP POP POP SWAP1 DUP1 PUSH1 0x4 ADD DUP1 SLOAD PUSH2 0x9DA SWAP1 PUSH2 0x1218 JUMP JUMPDEST DUP1 PUSH1 0x1F ADD PUSH1 0x20 DUP1 SWAP2 DIV MUL PUSH1 0x20 ADD PUSH1 0x40 MLOAD SWAP1 DUP2 ADD PUSH1 0x40 MSTORE DUP1 SWAP3 SWAP2 SWAP1 DUP2 DUP2 MSTORE PUSH1 0x20 ADD DUP3 DUP1 SLOAD PUSH2 0xA06 SWAP1 PUSH2 0x1218 JUMP JUMPDEST DUP1 ISZERO PUSH2 0xA53 JUMPI DUP1 PUSH1 0x1F LT PUSH2 0xA28 JUMPI PUSH2 0x100 DUP1 DUP4 SLOAD DIV MUL DUP4 MSTORE SWAP2 PUSH1 0x20 ADD SWAP2 PUSH2 0xA53 JUMP JUMPDEST DUP3 ADD SWAP2 SWAP1 PUSH1 0x0 MSTORE PUSH1 0x20 PUSH1 0x0 KECCAK256 SWAP1 JUMPDEST DUP2 SLOAD DUP2 MSTORE SWAP1 PUSH1 0x1 ADD SWAP1 PUSH1 0x20 ADD DUP1 DUP4 GT PUSH2 0xA36 JUMPI DUP3 SWAP1 SUB PUSH1 0x1F AND DUP3 ADD SWAP2 JUMPDEST POP POP POP POP POP SWAP1 DUP1 PUSH1 0x5 ADD DUP1 SLOAD PUSH2 0xA68 SWAP1 PUSH2 0x1218 JUMP JUMPDEST DUP1 PUSH1 0x1F ADD PUSH1 0x20 DUP1 SWAP2 DIV MUL PUSH1 0x20 ADD PUSH1 0x40 MLOAD SWAP1 DUP2 ADD PUSH1 0x40 MSTORE DUP1 SWAP3 SWAP2 SWAP1 DUP2 DUP2 MSTORE PUSH1 0x20 ADD DUP3 DUP1 SLOAD PUSH2 0xA94 SWAP1 PUSH2 0x1218 JUMP JUMPDEST DUP1 ISZERO PUSH2 0xAE1 JUMPI DUP1 PUSH1 0x1F LT PUSH2 0xAB6 JUMPI PUSH2 0x100 DUP1 DUP4 SLOAD DIV MUL DUP4 MSTORE SWAP2 PUSH1 0x20 ADD SWAP2 PUSH2 0xAE1 JUMP JUMPDEST DUP3 ADD SWAP2 SWAP1 PUSH1 0x0 MSTORE PUSH1 0x20 PUSH1 0x0 KECCAK256 SWAP1 JUMPDEST DUP2 SLOAD DUP2 MSTORE SWAP1 PUSH1 0x1 ADD SWAP1 PUSH1 0x20 ADD DUP1 DUP4 GT PUSH2 0xAC4 JUMPI DUP3 SWAP1 SUB PUSH1 0x1F AND DUP3 ADD SWAP2 JUMPDEST POP POP POP POP POP SWAP1 POP DUP7 JUMP JUMPDEST PUSH1 0x0 PUSH1 0x40 MLOAD DUP1 PUSH1 0xC0 ADD PUSH1 0x40 MSTORE DUP1 DUP9 DUP2 MSTORE PUSH1 0x20 ADD DUP8 DUP2 MSTORE PUSH1 0x20 ADD DUP7 DUP2 MSTORE PUSH1 0x20 ADD DUP6 DUP2 MSTORE PUSH1 0x20 ADD DUP5 DUP2 MSTORE PUSH1 0x20 ADD DUP4 DUP2 MSTORE POP SWAP1 POP PUSH1 0x0 DUP2 SWAP1 DUP1 PUSH1 0x1 DUP2 SLOAD ADD DUP1 DUP3 SSTORE DUP1 SWAP2 POP POP PUSH1 0x1 SWAP1 SUB SWAP1 PUSH1 0x0 MSTORE PUSH1 0x20 PUSH1 0x0 KECCAK256 SWAP1 PUSH1 0x6 MUL ADD PUSH1 0x0 SWAP1 SWAP2 SWAP1 SWAP2 SWAP1 SWAP2 POP PUSH1 0x0 DUP3 ADD MLOAD DUP2 PUSH1 0x0 ADD SWAP1 DUP2 PUSH2 0xB5D SWAP2 SWAP1 PUSH2 0x148F JUMP JUMPDEST POP PUSH1 0x20 DUP3 ADD MLOAD DUP2 PUSH1 0x1 ADD SWAP1 DUP2 PUSH2 0xB73 SWAP2 SWAP1 PUSH2 0x148F JUMP JUMPDEST POP PUSH1 0x40 DUP3 ADD MLOAD DUP2 PUSH1 0x2 ADD SWAP1 DUP2 PUSH2 0xB89 SWAP2 SWAP1 PUSH2 0x148F JUMP JUMPDEST POP PUSH1 0x60 DUP3 ADD MLOAD DUP2 PUSH1 0x3 ADD SWAP1 DUP2 PUSH2 0xB9F SWAP2 SWAP1 PUSH2 0x148F JUMP JUMPDEST POP PUSH1 0x80 DUP3 ADD MLOAD DUP2 PUSH1 0x4 ADD SWAP1 DUP2 PUSH2 0xBB5 SWAP2 SWAP1 PUSH2 0x148F JUMP JUMPDEST POP PUSH1 0xA0 DUP3 ADD MLOAD DUP2 PUSH1 0x5 ADD SWAP1 DUP2 PUSH2 0xBCB SWAP2 SWAP1 PUSH2 0x148F JUMP JUMPDEST POP POP POP PUSH32 0x89B578248E931BB3EFBFD96797869E3673E73E1E493F0C0846B4B754974DE6CD DUP8 DUP8 DUP8 DUP8 DUP8 DUP8 PUSH1 0x40 MLOAD PUSH2 0xC07 SWAP7 SWAP6 SWAP5 SWAP4 SWAP3 SWAP2 SWAP1 PUSH2 0x10DC JUMP JUMPDEST PUSH1 0x40 MLOAD DUP1 SWAP2 SUB SWAP1 LOG1 POP POP POP POP POP POP POP JUMP JUMPDEST PUSH1 0x60 PUSH1 0x0 DUP5 SWAP1 POP PUSH1 0x0 DUP5 DUP5 PUSH2 0xC2D SWAP2 SWAP1 PUSH2 0x1856 JUMP JUMPDEST PUSH8 0xFFFFFFFFFFFFFFFF DUP2 GT ISZERO PUSH2 0xC46 JUMPI PUSH2 0xC45 PUSH2 0xD42 JUMP JUMPDEST JUMPDEST PUSH1 0x40 MLOAD SWAP1 DUP1 DUP3 MSTORE DUP1 PUSH1 0x1F ADD PUSH1 0x1F NOT AND PUSH1 0x20 ADD DUP3 ADD PUSH1 0x40 MSTORE DUP1 ISZERO PUSH2 0xC78 JUMPI DUP2 PUSH1 0x20 ADD PUSH1 0x1 DUP3 MUL DUP1 CALLDATASIZE DUP4 CALLDATACOPY DUP1 DUP3 ADD SWAP2 POP POP SWAP1 POP JUMPDEST POP SWAP1 POP PUSH1 0x0 DUP1 DUP7 SWAP1 POP JUMPDEST DUP6 DUP2 LT ISZERO PUSH2 0xD05 JUMPI DUP4 DUP2 DUP2 MLOAD DUP2 LT PUSH2 0xC9D JUMPI PUSH2 0xC9C PUSH2 0x11BA JUMP JUMPDEST JUMPDEST PUSH1 0x20 ADD ADD MLOAD PUSH1 0xF8 SHR PUSH1 0xF8 SHL DUP4 DUP4 DUP2 MLOAD DUP2 LT PUSH2 0xCBB JUMPI PUSH2 0xCBA PUSH2 0x11BA JUMP JUMPDEST JUMPDEST PUSH1 0x20 ADD ADD SWAP1 PUSH31 0xFFFFFFFFFFFFFFFFFFFFFFFFFFFFFFFFFFFFFFFFFFFFFFFFFFFFFFFFFFFFFF NOT AND SWAP1 DUP2 PUSH1 0x0 BYTE SWAP1 MSTORE8 POP DUP2 DUP1 PUSH2 0xCF5 SWAP1 PUSH2 0x18F8 JUMP JUMPDEST SWAP3 POP POP DUP1 DUP1 PUSH1 0x1 ADD SWAP2 POP POP PUSH2 0xC82 JUMP JUMPDEST POP DUP2 SWAP4 POP POP POP POP SWAP4 SWAP3 POP POP POP JUMP JUMPDEST PUSH1 0x0 PUSH1 0x40 MLOAD SWAP1 POP SWAP1 JUMP JUMPDEST PUSH1 0x0 DUP1 REVERT JUMPDEST PUSH1 0x0 DUP1 REVERT JUMPDEST PUSH1 0x0 DUP1 REVERT JUMPDEST PUSH1 0x0 DUP1 REVERT JUMPDEST PUSH1 0x0 PUSH1 0x1F NOT PUSH1 0x1F DUP4 ADD AND SWAP1 POP SWAP2 SWAP1 POP JUMP JUMPDEST PUSH32 0x4E487B7100000000000000000000000000000000000000000000000000000000 PUSH1 0x0 MSTORE PUSH1 0x41 PUSH1 0x4 MSTORE PUSH1 0x24 PUSH1 0x0 REVERT JUMPDEST PUSH2 0xD7A DUP3 PUSH2 0xD31 JUMP JUMPDEST DUP2 ADD DUP2 DUP2 LT PUSH8 0xFFFFFFFFFFFFFFFF DUP3 GT OR ISZERO PUSH2 0xD99 JUMPI PUSH2 0xD98 PUSH2 0xD42 JUMP JUMPDEST JUMPDEST DUP1 PUSH1 0x40 MSTORE POP POP POP JUMP JUMPDEST PUSH1 0x0 PUSH2 0xDAC PUSH2 0xD13 JUMP JUMPDEST SWAP1 POP PUSH2 0xDB8 DUP3 DUP3 PUSH2 0xD71 JUMP JUMPDEST SWAP2 SWAP1 POP JUMP JUMPDEST PUSH1 0x0 PUSH8 0xFFFFFFFFFFFFFFFF DUP3 GT ISZERO PUSH2 0xDD8 JUMPI PUSH2 0xDD7 PUSH2 0xD42 JUMP JUMPDEST JUMPDEST PUSH2 0xDE1 DUP3 PUSH2 0xD31 JUMP JUMPDEST SWAP1 POP PUSH1 0x20 DUP2 ADD SWAP1 POP SWAP2 SWAP1 POP JUMP JUMPDEST DUP3 DUP2 DUP4 CALLDATACOPY PUSH1 0x0 DUP4 DUP4 ADD MSTORE POP POP POP JUMP JUMPDEST PUSH1 0x0 PUSH2 0xE10 PUSH2 0xE0B DUP5 PUSH2 0xDBD JUMP JUMPDEST PUSH2 0xDA2 JUMP JUMPDEST SWAP1 POP DUP3 DUP2 MSTORE PUSH1 0x20 DUP2 ADD DUP5 DUP5 DUP5 ADD GT ISZERO PUSH2 0xE2C JUMPI PUSH2 0xE2B PUSH2 0xD2C JUMP JUMPDEST JUMPDEST PUSH2 0xE37 DUP5 DUP3 DUP6 PUSH2 0xDEE JUMP JUMPDEST POP SWAP4 SWAP3 POP POP POP JUMP JUMPDEST PUSH1 0x0 DUP3 PUSH1 0x1F DUP4 ADD SLT PUSH2 0xE54 JUMPI PUSH2 0xE53 PUSH2 0xD27 JUMP JUMPDEST JUMPDEST DUP2 CALLDATALOAD PUSH2 0xE64 DUP5 DUP3 PUSH1 0x20 DUP7 ADD PUSH2 0xDFD JUMP JUMPDEST SWAP2 POP POP SWAP3 SWAP2 POP POP JUMP JUMPDEST PUSH1 0x0 DUP1 PUSH1 0x0 DUP1 PUSH1 0x0 DUP1 PUSH1 0xC0 DUP8 DUP10 SUB SLT ISZERO PUSH2 0xE8A JUMPI PUSH2 0xE89 PUSH2 0xD1D JUMP JUMPDEST JUMPDEST PUSH1 0x0 DUP8 ADD CALLDATALOAD PUSH8 0xFFFFFFFFFFFFFFFF DUP2 GT ISZERO PUSH2 0xEA8 JUMPI PUSH2 0xEA7 PUSH2 0xD22 JUMP JUMPDEST JUMPDEST PUSH2 0xEB4 DUP10 DUP3 DUP11 ADD PUSH2 0xE3F JUMP JUMPDEST SWAP7 POP POP PUSH1 0x20 DUP8 ADD CALLDATALOAD PUSH8 0xFFFFFFFFFFFFFFFF DUP2 GT ISZERO PUSH2 0xED5 JUMPI PUSH2 0xED4 PUSH2 0xD22 JUMP JUMPDEST JUMPDEST PUSH2 0xEE1 DUP10 DUP3 DUP11 ADD PUSH2 0xE3F JUMP JUMPDEST SWAP6 POP POP PUSH1 0x40 DUP8 ADD CALLDATALOAD PUSH8 0xFFFFFFFFFFFFFFFF DUP2 GT ISZERO PUSH2 0xF02 JUMPI PUSH2 0xF01 PUSH2 0xD22 JUMP JUMPDEST JUMPDEST PUSH2 0xF0E DUP10 DUP3 DUP11 ADD PUSH2 0xE3F JUMP JUMPDEST SWAP5 POP POP PUSH1 0x60 DUP8 ADD CALLDATALOAD PUSH8 0xFFFFFFFFFFFFFFFF DUP2 GT ISZERO PUSH2 0xF2F JUMPI PUSH2 0xF2E PUSH2 0xD22 JUMP JUMPDEST JUMPDEST PUSH2 0xF3B DUP10 DUP3 DUP11 ADD PUSH2 0xE3F JUMP JUMPDEST SWAP4 POP POP PUSH1 0x80 DUP8 ADD CALLDATALOAD PUSH8 0xFFFFFFFFFFFFFFFF DUP2 GT ISZERO PUSH2 0xF5C JUMPI PUSH2 0xF5B PUSH2 0xD22 JUMP JUMPDEST JUMPDEST PUSH2 0xF68 DUP10 DUP3 DUP11 ADD PUSH2 0xE3F JUMP JUMPDEST SWAP3 POP POP PUSH1 0xA0 DUP8 ADD CALLDATALOAD PUSH8 0xFFFFFFFFFFFFFFFF DUP2 GT ISZERO PUSH2 0xF89 JUMPI PUSH2 0xF88 PUSH2 0xD22 JUMP JUMPDEST JUMPDEST PUSH2 0xF95 DUP10 DUP3 DUP11 ADD PUSH2 0xE3F JUMP JUMPDEST SWAP2 POP POP SWAP3 SWAP6 POP SWAP3 SWAP6 POP SWAP3 SWAP6 JUMP JUMPDEST PUSH1 0x0 DUP2 ISZERO ISZERO SWAP1 POP SWAP2 SWAP1 POP JUMP JUMPDEST PUSH2 0xFB7 DUP2 PUSH2 0xFA2 JUMP JUMPDEST DUP3 MSTORE POP POP JUMP JUMPDEST PUSH1 0x0 PUSH1 0x20 DUP3 ADD SWAP1 POP PUSH2 0xFD2 PUSH1 0x0 DUP4 ADD DUP5 PUSH2 0xFAE JUMP JUMPDEST SWAP3 SWAP2 POP POP JUMP JUMPDEST PUSH1 0x0 DUP2 MLOAD SWAP1 POP SWAP2 SWAP1 POP JUMP JUMPDEST PUSH1 0x0 DUP3 DUP3 MSTORE PUSH1 0x20 DUP3 ADD SWAP1 POP SWAP3 SWAP2 POP POP JUMP JUMPDEST PUSH1 0x0 JUMPDEST DUP4 DUP2 LT ISZERO PUSH2 0x1012 JUMPI DUP1 DUP3 ADD MLOAD DUP2 DUP5 ADD MSTORE PUSH1 0x20 DUP2 ADD SWAP1 POP PUSH2 0xFF7 JUMP JUMPDEST PUSH1 0x0 DUP5 DUP5 ADD MSTORE POP POP POP POP JUMP JUMPDEST PUSH1 0x0 PUSH2 0x1029 DUP3 PUSH2 0xFD8 JUMP JUMPDEST PUSH2 0x1033 DUP2 DUP6 PUSH2 0xFE3 JUMP JUMPDEST SWAP4 POP PUSH2 0x1043 DUP2 DUP6 PUSH1 0x20 DUP7 ADD PUSH2 0xFF4 JUMP JUMPDEST PUSH2 0x104C DUP2 PUSH2 0xD31 JUMP JUMPDEST DUP5 ADD SWAP2 POP POP SWAP3 SWAP2 POP POP JUMP JUMPDEST PUSH1 0x0 PUSH1 0x20 DUP3 ADD SWAP1 POP DUP2 DUP2 SUB PUSH1 0x0 DUP4 ADD MSTORE PUSH2 0x1071 DUP2 DUP5 PUSH2 0x101E JUMP JUMPDEST SWAP1 POP SWAP3 SWAP2 POP POP JUMP JUMPDEST PUSH1 0x0 DUP2 SWAP1 POP SWAP2 SWAP1 POP JUMP JUMPDEST PUSH2 0x108C DUP2 PUSH2 0x1079 JUMP JUMPDEST DUP2 EQ PUSH2 0x1097 JUMPI PUSH1 0x0 DUP1 REVERT JUMPDEST POP JUMP JUMPDEST PUSH1 0x0 DUP2 CALLDATALOAD SWAP1 POP PUSH2 0x10A9 DUP2 PUSH2 0x1083 JUMP JUMPDEST SWAP3 SWAP2 POP POP JUMP JUMPDEST PUSH1 0x0 PUSH1 0x20 DUP3 DUP5 SUB SLT ISZERO PUSH2 0x10C5 JUMPI PUSH2 0x10C4 PUSH2 0xD1D JUMP JUMPDEST JUMPDEST PUSH1 0x0 PUSH2 0x10D3 DUP5 DUP3 DUP6 ADD PUSH2 0x109A JUMP JUMPDEST SWAP2 POP POP SWAP3 SWAP2 POP POP JUMP JUMPDEST PUSH1 0x0 PUSH1 0xC0 DUP3 ADD SWAP1 POP DUP2 DUP2 SUB PUSH1 0x0 DUP4 ADD MSTORE PUSH2 0x10F6 DUP2 DUP10 PUSH2 0x101E JUMP JUMPDEST SWAP1 POP DUP2 DUP2 SUB PUSH1 0x20 DUP4 ADD MSTORE PUSH2 0x110A DUP2 DUP9 PUSH2 0x101E JUMP JUMPDEST SWAP1 POP DUP2 DUP2 SUB PUSH1 0x40 DUP4 ADD MSTORE PUSH2 0x111E DUP2 DUP8 PUSH2 0x101E JUMP JUMPDEST SWAP1 POP DUP2 DUP2 SUB PUSH1 0x60 DUP4 ADD MSTORE PUSH2 0x1132 DUP2 DUP7 PUSH2 0x101E JUMP JUMPDEST SWAP1 POP DUP2 DUP2 SUB PUSH1 0x80 DUP4 ADD MSTORE PUSH2 0x1146 DUP2 DUP6 PUSH2 0x101E JUMP JUMPDEST SWAP1 POP DUP2 DUP2 SUB PUSH1 0xA0 DUP4 ADD MSTORE PUSH2 0x115A DUP2 DUP5 PUSH2 0x101E JUMP JUMPDEST SWAP1 POP SWAP8 SWAP7 POP POP POP POP POP POP POP JUMP JUMPDEST PUSH1 0x0 DUP2 SWAP1 POP SWAP3 SWAP2 POP POP JUMP JUMPDEST PUSH1 0x0 PUSH2 0x117D DUP3 PUSH2 0xFD8 JUMP JUMPDEST PUSH2 0x1187 DUP2 DUP6 PUSH2 0x1167 JUMP JUMPDEST SWAP4 POP PUSH2 0x1197 DUP2 DUP6 PUSH1 0x20 DUP7 ADD PUSH2 0xFF4 JUMP JUMPDEST DUP1 DUP5 ADD SWAP2 POP POP SWAP3 SWAP2 POP POP JUMP JUMPDEST PUSH1 0x0 PUSH2 0x11AF DUP3 DUP5 PUSH2 0x1172 JUMP JUMPDEST SWAP2 POP DUP2 SWAP1 POP SWAP3 SWAP2 POP POP JUMP JUMPDEST PUSH32 0x4E487B7100000000000000000000000000000000000000000000000000000000 PUSH1 0x0 MSTORE PUSH1 0x32 PUSH1 0x4 MSTORE PUSH1 0x24 PUSH1 0x0 REVERT JUMPDEST PUSH32 0x4E487B7100000000000000000000000000000000000000000000000000000000 PUSH1 0x0 MSTORE PUSH1 0x22 PUSH1 0x4 MSTORE PUSH1 0x24 PUSH1 0x0 REVERT JUMPDEST PUSH1 0x0 PUSH1 0x2 DUP3 DIV SWAP1 POP PUSH1 0x1 DUP3 AND DUP1 PUSH2 0x1230 JUMPI PUSH1 0x7F DUP3 AND SWAP2 POP JUMPDEST PUSH1 0x20 DUP3 LT DUP2 SUB PUSH2 0x1243 JUMPI PUSH2 0x1242 PUSH2 0x11E9 JUMP JUMPDEST JUMPDEST POP SWAP2 SWAP1 POP JUMP JUMPDEST PUSH1 0x0 DUP2 SWAP1 POP DUP2 PUSH1 0x0 MSTORE PUSH1 0x20 PUSH1 0x0 KECCAK256 SWAP1 POP SWAP2 SWAP1 POP JUMP JUMPDEST PUSH1 0x0 DUP2 SLOAD PUSH2 0x126B DUP2 PUSH2 0x1218 JUMP JUMPDEST PUSH2 0x1275 DUP2 DUP7 PUSH2 0x1167 JUMP JUMPDEST SWAP5 POP PUSH1 0x1 DUP3 AND PUSH1 0x0 DUP2 EQ PUSH2 0x1290 JUMPI PUSH1 0x1 DUP2 EQ PUSH2 0x12A5 JUMPI PUSH2 0x12D8 JUMP JUMPDEST PUSH1 0xFF NOT DUP4 AND DUP7 MSTORE DUP2 ISZERO ISZERO DUP3 MUL DUP7 ADD SWAP4 POP PUSH2 0x12D8 JUMP JUMPDEST PUSH2 0x12AE DUP6 PUSH2 0x1249 JUMP JUMPDEST PUSH1 0x0 JUMPDEST DUP4 DUP2 LT ISZERO PUSH2 0x12D0 JUMPI DUP2 SLOAD DUP2 DUP10 ADD MSTORE PUSH1 0x1 DUP3 ADD SWAP2 POP PUSH1 0x20 DUP2 ADD SWAP1 POP PUSH2 0x12B1 JUMP JUMPDEST DUP4 DUP9 ADD SWAP6 POP POP POP JUMPDEST POP POP POP SWAP3 SWAP2 POP POP JUMP JUMPDEST PUSH1 0x0 PUSH2 0x12ED DUP3 DUP5 PUSH2 0x125E JUMP JUMPDEST SWAP2 POP DUP2 SWAP1 POP SWAP3 SWAP2 POP POP JUMP JUMPDEST PUSH1 0x0 PUSH1 0x20 PUSH1 0x1F DUP4 ADD DIV SWAP1 POP SWAP2 SWAP1 POP JUMP JUMPDEST PUSH1 0x0 DUP3 DUP3 SHL SWAP1 POP SWAP3 SWAP2 POP POP JUMP JUMPDEST PUSH1 0x0 PUSH1 0x8 DUP4 MUL PUSH2 0x1345 PUSH32 0xFFFFFFFFFFFFFFFFFFFFFFFFFFFFFFFFFFFFFFFFFFFFFFFFFFFFFFFFFFFFFFFF DUP3 PUSH2 0x1308 JUMP JUMPDEST PUSH2 0x134F DUP7 DUP4 PUSH2 0x1308 JUMP JUMPDEST SWAP6 POP DUP1 NOT DUP5 AND SWAP4 POP DUP1 DUP7 AND DUP5 OR SWAP3 POP POP POP SWAP4 SWAP3 POP POP POP JUMP JUMPDEST PUSH1 0x0 DUP2 SWAP1 POP SWAP2 SWAP1 POP JUMP JUMPDEST PUSH1 0x0 PUSH2 0x138C PUSH2 0x1387 PUSH2 0x1382 DUP5 PUSH2 0x1079 JUMP JUMPDEST PUSH2 0x1367 JUMP JUMPDEST PUSH2 0x1079 JUMP JUMPDEST SWAP1 POP SWAP2 SWAP1 POP JUMP JUMPDEST PUSH1 0x0 DUP2 SWAP1 POP SWAP2 SWAP1 POP JUMP JUMPDEST PUSH2 0x13A6 DUP4 PUSH2 0x1371 JUMP JUMPDEST PUSH2 0x13BA PUSH2 0x13B2 DUP3 PUSH2 0x1393 JUMP JUMPDEST DUP5 DUP5 SLOAD PUSH2 0x1315 JUMP JUMPDEST DUP3 SSTORE POP POP POP POP JUMP JUMPDEST PUSH1 0x0 SWAP1 JUMP JUMPDEST PUSH2 0x13CF PUSH2 0x13C2 JUMP JUMPDEST PUSH2 0x13DA DUP2 DUP5 DUP5 PUSH2 0x139D JUMP JUMPDEST POP POP POP JUMP JUMPDEST JUMPDEST DUP2 DUP2 LT ISZERO PUSH2 0x13FE JUMPI PUSH2 0x13F3 PUSH1 0x0 DUP3 PUSH2 0x13C7 JUMP JUMPDEST PUSH1 0x1 DUP2 ADD SWAP1 POP PUSH2 0x13E0 JUMP JUMPDEST POP POP JUMP JUMPDEST PUSH1 0x1F DUP3 GT ISZERO PUSH2 0x1443 JUMPI PUSH2 0x1414 DUP2 PUSH2 0x1249 JUMP JUMPDEST PUSH2 0x141D DUP5 PUSH2 0x12F8 JUMP JUMPDEST DUP2 ADD PUSH1 0x20 DUP6 LT ISZERO PUSH2 0x142C JUMPI DUP2 SWAP1 POP JUMPDEST PUSH2 0x1440 PUSH2 0x1438 DUP6 PUSH2 0x12F8 JUMP JUMPDEST DUP4 ADD DUP3 PUSH2 0x13DF JUMP JUMPDEST POP POP JUMPDEST POP POP POP JUMP JUMPDEST PUSH1 0x0 DUP3 DUP3 SHR SWAP1 POP SWAP3 SWAP2 POP POP JUMP JUMPDEST PUSH1 0x0 PUSH2 0x1466 PUSH1 0x0 NOT DUP5 PUSH1 0x8 MUL PUSH2 0x1448 JUMP JUMPDEST NOT DUP1 DUP4 AND SWAP2 POP POP SWAP3 SWAP2 POP POP JUMP JUMPDEST PUSH1 0x0 PUSH2 0x147F DUP4 DUP4 PUSH2 0x1455 JUMP JUMPDEST SWAP2 POP DUP3 PUSH1 0x2 MUL DUP3 OR SWAP1 POP SWAP3 SWAP2 POP POP JUMP JUMPDEST PUSH2 0x1498 DUP3 PUSH2 0xFD8 JUMP JUMPDEST PUSH8 0xFFFFFFFFFFFFFFFF DUP2 GT ISZERO PUSH2 0x14B1 JUMPI PUSH2 0x14B0 PUSH2 0xD42 JUMP JUMPDEST JUMPDEST PUSH2 0x14BB DUP3 SLOAD PUSH2 0x1218 JUMP JUMPDEST PUSH2 0x14C6 DUP3 DUP3 DUP6 PUSH2 0x1402 JUMP JUMPDEST PUSH1 0x0 PUSH1 0x20 SWAP1 POP PUSH1 0x1F DUP4 GT PUSH1 0x1 DUP2 EQ PUSH2 0x14F9 JUMPI PUSH1 0x0 DUP5 ISZERO PUSH2 0x14E7 JUMPI DUP3 DUP8 ADD MLOAD SWAP1 POP JUMPDEST PUSH2 0x14F1 DUP6 DUP3 PUSH2 0x1473 JUMP JUMPDEST DUP7 SSTORE POP PUSH2 0x1559 JUMP JUMPDEST PUSH1 0x1F NOT DUP5 AND PUSH2 0x1507 DUP7 PUSH2 0x1249 JUMP JUMPDEST PUSH1 0x0 JUMPDEST DUP3 DUP2 LT ISZERO PUSH2 0x152F JUMPI DUP5 DUP10 ADD MLOAD DUP3 SSTORE PUSH1 0x1 DUP3 ADD SWAP2 POP PUSH1 0x20 DUP6 ADD SWAP5 POP PUSH1 0x20 DUP2 ADD SWAP1 POP PUSH2 0x150A JUMP JUMPDEST DUP7 DUP4 LT ISZERO PUSH2 0x154C JUMPI DUP5 DUP10 ADD MLOAD PUSH2 0x1548 PUSH1 0x1F DUP10 AND DUP3 PUSH2 0x1455 JUMP JUMPDEST DUP4 SSTORE POP JUMPDEST PUSH1 0x1 PUSH1 0x2 DUP9 MUL ADD DUP9 SSTORE POP POP POP JUMPDEST POP POP POP POP POP POP JUMP JUMPDEST PUSH32 0x7B226964223A2200000000000000000000000000000000000000000000000000 PUSH1 0x0 DUP3 ADD MSTORE POP JUMP JUMPDEST PUSH1 0x0 PUSH2 0x1597 PUSH1 0x7 DUP4 PUSH2 0x1167 JUMP JUMPDEST SWAP2 POP PUSH2 0x15A2 DUP3 PUSH2 0x1561 JUMP JUMPDEST PUSH1 0x7 DUP3 ADD SWAP1 POP SWAP2 SWAP1 POP JUMP JUMPDEST PUSH32 0x222C202274656D7065726174757265223A220000000000000000000000000000 PUSH1 0x0 DUP3 ADD MSTORE POP JUMP JUMPDEST PUSH1 0x0 PUSH2 0x15E3 PUSH1 0x12 DUP4 PUSH2 0x1167 JUMP JUMPDEST SWAP2 POP PUSH2 0x15EE DUP3 PUSH2 0x15AD JUMP JUMPDEST PUSH1 0x12 DUP3 ADD SWAP1 POP SWAP2 SWAP1 POP JUMP JUMPDEST PUSH32 0x222C202268756D6964697479223A220000000000000000000000000000000000 PUSH1 0x0 DUP3 ADD MSTORE POP JUMP JUMPDEST PUSH1 0x0 PUSH2 0x162F PUSH1 0xF DUP4 PUSH2 0x1167 JUMP JUMPDEST SWAP2 POP PUSH2 0x163A DUP3 PUSH2 0x15F9 JUMP JUMPDEST PUSH1 0xF DUP3 ADD SWAP1 POP SWAP2 SWAP1 POP JUMP JUMPDEST PUSH32 0x222C202277617465724C6576656C223A22000000000000000000000000000000 PUSH1 0x0 DUP3 ADD MSTORE POP JUMP JUMPDEST PUSH1 0x0 PUSH2 0x167B PUSH1 0x11 DUP4 PUSH2 0x1167 JUMP JUMPDEST SWAP2 POP PUSH2 0x1686 DUP3 PUSH2 0x1645 JUMP JUMPDEST PUSH1 0x11 DUP3 ADD SWAP1 POP SWAP2 SWAP1 POP JUMP JUMPDEST PUSH32 0x222C202266697265416C657274223A2200000000000000000000000000000000 PUSH1 0x0 DUP3 ADD MSTORE POP JUMP JUMPDEST PUSH1 0x0 PUSH2 0x16C7 PUSH1 0x10 DUP4 PUSH2 0x1167 JUMP JUMPDEST SWAP2 POP PUSH2 0x16D2 DUP3 PUSH2 0x1691 JUMP JUMPDEST PUSH1 0x10 DUP3 ADD SWAP1 POP SWAP2 SWAP1 POP JUMP JUMPDEST PUSH32 0x222C2022736D6F6B65416C657274223A22000000000000000000000000000000 PUSH1 0x0 DUP3 ADD MSTORE POP JUMP JUMPDEST PUSH1 0x0 PUSH2 0x1713 PUSH1 0x11 DUP4 PUSH2 0x1167 JUMP JUMPDEST SWAP2 POP PUSH2 0x171E DUP3 PUSH2 0x16DD JUMP JUMPDEST PUSH1 0x11 DUP3 ADD SWAP1 POP SWAP2 SWAP1 POP JUMP JUMPDEST PUSH32 0x227D2C0000000000000000000000000000000000000000000000000000000000 PUSH1 0x0 DUP3 ADD MSTORE POP JUMP JUMPDEST PUSH1 0x0 PUSH2 0x175F PUSH1 0x3 DUP4 PUSH2 0x1167 JUMP JUMPDEST SWAP2 POP PUSH2 0x176A DUP3 PUSH2 0x1729 JUMP JUMPDEST PUSH1 0x3 DUP3 ADD SWAP1 POP SWAP2 SWAP1 POP JUMP JUMPDEST PUSH1 0x0 PUSH2 0x1781 DUP3 DUP11 PUSH2 0x1172 JUMP JUMPDEST SWAP2 POP PUSH2 0x178C DUP3 PUSH2 0x158A JUMP JUMPDEST SWAP2 POP PUSH2 0x1798 DUP3 DUP10 PUSH2 0x1172 JUMP JUMPDEST SWAP2 POP PUSH2 0x17A3 DUP3 PUSH2 0x15D6 JUMP JUMPDEST SWAP2 POP PUSH2 0x17AF DUP3 DUP9 PUSH2 0x1172 JUMP JUMPDEST SWAP2 POP PUSH2 0x17BA DUP3 PUSH2 0x1622 JUMP JUMPDEST SWAP2 POP PUSH2 0x17C6 DUP3 DUP8 PUSH2 0x1172 JUMP JUMPDEST SWAP2 POP PUSH2 0x17D1 DUP3 PUSH2 0x166E JUMP JUMPDEST SWAP2 POP PUSH2 0x17DD DUP3 DUP7 PUSH2 0x1172 JUMP JUMPDEST SWAP2 POP PUSH2 0x17E8 DUP3 PUSH2 0x16BA JUMP JUMPDEST SWAP2 POP PUSH2 0x17F4 DUP3 DUP6 PUSH2 0x1172 JUMP JUMPDEST SWAP2 POP PUSH2 0x17FF DUP3 PUSH2 0x1706 JUMP JUMPDEST SWAP2 POP PUSH2 0x180B DUP3 DUP5 PUSH2 0x1172 JUMP JUMPDEST SWAP2 POP PUSH2 0x1816 DUP3 PUSH2 0x1752 JUMP JUMPDEST SWAP2 POP DUP2 SWAP1 POP SWAP9 SWAP8 POP POP POP POP POP POP POP POP JUMP JUMPDEST PUSH32 0x4E487B7100000000000000000000000000000000000000000000000000000000 PUSH1 0x0 MSTORE PUSH1 0x11 PUSH1 0x4 MSTORE PUSH1 0x24 PUSH1 0x0 REVERT JUMPDEST PUSH1 0x0 PUSH2 0x1861 DUP3 PUSH2 0x1079 JUMP JUMPDEST SWAP2 POP PUSH2 0x186C DUP4 PUSH2 0x1079 JUMP JUMPDEST SWAP3 POP DUP3 DUP3 SUB SWAP1 POP DUP2 DUP2 GT ISZERO PUSH2 0x1884 JUMPI PUSH2 0x1883 PUSH2 0x1827 JUMP JUMPDEST JUMPDEST SWAP3 SWAP2 POP POP JUMP JUMPDEST PUSH32 0x5D00000000000000000000000000000000000000000000000000000000000000 PUSH1 0x0 DUP3 ADD MSTORE POP JUMP JUMPDEST PUSH1 0x0 PUSH2 0x18C0 PUSH1 0x1 DUP4 PUSH2 0x1167 JUMP JUMPDEST SWAP2 POP PUSH2 0x18CB DUP3 PUSH2 0x188A JUMP JUMPDEST PUSH1 0x1 DUP3 ADD SWAP1 POP SWAP2 SWAP1 POP JUMP JUMPDEST PUSH1 0x0 PUSH2 0x18E2 DUP3 DUP5 PUSH2 0x1172 JUMP JUMPDEST SWAP2 POP PUSH2 0x18ED DUP3 PUSH2 0x18B3 JUMP JUMPDEST SWAP2 POP DUP2 SWAP1 POP SWAP3 SWAP2 POP POP JUMP JUMPDEST PUSH1 0x0 PUSH2 0x1903 DUP3 PUSH2 0x1079 JUMP JUMPDEST SWAP2 POP PUSH32 0xFFFFFFFFFFFFFFFFFFFFFFFFFFFFFFFFFFFFFFFFFFFFFFFFFFFFFFFFFFFFFFFF DUP3 SUB PUSH2 0x1935 JUMPI PUSH2 0x1934 PUSH2 0x1827 JUMP JUMPDEST JUMPDEST PUSH1 0x1 DUP3 ADD SWAP1 POP SWAP2 SWAP1 POP JUMP INVALID LOG2 PUSH5 0x6970667358 0x22 SLT KECCAK256 0x29 SMOD 0x28 PUSH32 0x5B9216EC95B8D07BDE12C33D3D71FDDFEEB579E996D37CD8A0F431FE64736F6C PUSH4 0x4300081C STOP CALLER "},"methodIdentifiers":{"addSensorData(string,string,string,string,string,string)":"c59b0e75","getSensorData()":"7f279041","modifySensorData(string,string,string,string,string,string)":"28ef9b89","sensorData(uint256)":"ab562a1d"}}}}}