{
  "_format": "hh-sol-artifact-1",
  "contractName": "SensorData",
  "sourceName": "contracts/SensorData.sol",
  "abi": [
    {
      "anonymous": false,
      "inputs": [
        {
          "indexed": false,
          "internalType": "string",
          "name": "id",
          "type": "string"
        },
        {
          "indexed": false,
          "internalType": "string",
          "name": "temperature",
          "type": "string"
        },
        {
          "indexed": false,
          "internalType": "string",
          "name": "humidity",
          "type": "string"
        },
        {
          "indexed": false,
          "internalType": "string",
          "name": "waterLevel",
          "type": "string"
        },
        {
          "indexed": false,
          "internalType": "string",
          "name": "fireAlert",
          "type": "string"
        },
        {
          "indexed": false,
          "internalType": "string",
          "name": "smokeAlert",
          "type": "string"
        }
      ],
      "name": "SensorDataAdded",
      "type": "event"
    },
    {
      "anonymous": false,
      "inputs": [
        {
          "indexed": false,
          "internalType": "string",
          "name": "id",
          "type": "string"
        },
        {
          "indexed": false,
          "internalType": "string",
          "name": "temperature",
          "type": "string"
        },
        {
          "indexed": false,
          "internalType": "string",
          "name": "humidity",
          "type": "string"
        },
        {
          "indexed": false,
          "internalType": "string",
          "name": "waterLevel",
          "type": "string"
        },
        {
          "indexed": false,
          "internalType": "string",
          "name": "fireAlert",
          "type": "string"
        },
        {
          "indexed": false,
          "internalType": "string",
          "name": "smokeAlert",
          "type": "string"
        }
      ],
      "name": "SensorDataModified",
      "type": "event"
    },
    {
      "inputs": [
        {
          "internalType": "string",
          "name": "_id",
          "type": "string"
        },
        {
          "internalType": "string",
          "name": "_temperature",
          "type": "string"
        },
        {
          "internalType": "string",
          "name": "_humidity",
          "type": "string"
        },
        {
          "internalType": "string",
          "name": "_waterLevel",
          "type": "string"
        },
        {
          "internalType": "string",
          "name": "_fireAlert",
          "type": "string"
        },
        {
          "internalType": "string",
          "name": "_smokeAlert",
          "type": "string"
        }
      ],
      "name": "addSensorData",
      "outputs": [],
      "stateMutability": "nonpayable",
      "type": "function"
    },
    {
      "inputs": [],
      "name": "getSensorData",
      "outputs": [
        {
          "internalType": "string",
          "name": "",
          "type": "string"
        }
      ],
      "stateMutability": "view",
      "type": "function"
    },
    {
      "inputs": [
        {
          "internalType": "string",
          "name": "_id",
          "type": "string"
        },
        {
          "internalType": "string",
          "name": "_temperature",
          "type": "string"
        },
        {
          "internalType": "string",
          "name": "_humidity",
          "type": "string"
        },
        {
          "internalType": "string",
          "name": "_waterLevel",
          "type": "string"
        },
        {
          "internalType": "string",
          "name": "_fireAlert",
          "type": "string"
        },
        {
          "internalType": "string",
          "name": "_smokeAlert",
          "type": "string"
        }
      ],
      "name": "modifySensorData",
      "outputs": [
        {
          "internalType": "bool",
          "name": "success",
          "type": "bool"
        }
      ],
      "stateMutability": "nonpayable",
      "type": "function"
    },
    {
      "inputs": [
        {
          "internalType": "uint256",
          "name": "",
          "type": "uint256"
        }
      ],
      "name": "sensorData",
      "outputs": [
        {
          "internalType": "string",
          "name": "id",
          "type": "string"
        },
        {
          "internalType": "string",
          "name": "temperature",
          "type": "string"
        },
        {
          "internalType": "string",
          "name": "humidity",
          "type": "string"
        },
        {
          "internalType": "string",
          "name": "waterLevel",
          "type": "string"
        },
        {
          "internalType": "string",
          "name": "fireAlert",
          "type": "string"
        },
        {
          "internalType": "string",
          "name": "smokeAlert",
          "type": "string"
        }
      ],
      "stateMutability": "view",
      "type": "function"
    }
  ],
  "bytecode": "0x6080604052348015600f57600080fd5b506119768061001f6000396000f3fe608060405234801561001057600080fd5b506004361061004c5760003560e01c806328ef9b89146100515780637f27904114610081578063ab562a1d1461009f578063c59b0e75146100d4575b600080fd5b61006b60048036038101906100669190610e6d565b6100f0565b6040516100789190610fbd565b60405180910390f35b6100896102e3565b6040516100969190611057565b60405180910390f35b6100b960048036038101906100b491906110af565b61076f565b6040516100cb969594939291906110dc565b60405180910390f35b6100ee60048036038101906100e99190610e6d565b610aeb565b005b600080600090505b6000805490508110156102d3578760405160200161011691906111a3565b60405160208183030381529060405280519060200120600082815481106101405761013f6111ba565b5b906000526020600020906006020160000160405160200161016191906112e1565b60405160208183030381529060405280519060200120036102c6578660008281548110610191576101906111ba565b5b906000526020600020906006020160010190816101ae919061148f565b5085600082815481106101c4576101c36111ba565b5b906000526020600020906006020160020190816101e1919061148f565b5084600082815481106101f7576101f66111ba565b5b90600052602060002090600602016003019081610214919061148f565b50836000828154811061022a576102296111ba565b5b90600052602060002090600602016004019081610247919061148f565b50826000828154811061025d5761025c6111ba565b5b9060005260206000209060060201600501908161027a919061148f565b507fe5805d424caf1517b0277d7a480f7cae65be3c00e255c6732ba72ef3a1fe19c38888888888886040516102b4969594939291906110dc565b60405180910390a160019150506102d9565b80806001019150506100f8565b50600090505b9695505050505050565b606060006040518060400160405280600181526020017f5b00000000000000000000000000000000000000000000000000000000000000815250905060005b60008054905081101561071f576000808281548110610344576103436111ba565b5b90600052602060002090600602016040518060c001604052908160008201805461036d90611218565b80601f016020809104026020016040519081016040528092919081815260200182805461039990611218565b80156103e65780601f106103bb576101008083540402835291602001916103e6565b820191906000526020600020905b8154815290600101906020018083116103c957829003601f168201915b505050505081526020016001820180546103ff90611218565b80601f016020809104026020016040519081016040528092919081815260200182805461042b90611218565b80156104785780601f1061044d57610100808354040283529160200191610478565b820191906000526020600020905b81548152906001019060200180831161045b57829003601f168201915b5050505050815260200160028201805461049190611218565b80601f01602080910402602001604051908101604052809291908181526020018280546104bd90611218565b801561050a5780601f106104df5761010080835404028352916020019161050a565b820191906000526020600020905b8154815290600101906020018083116104ed57829003601f168201915b5050505050815260200160038201805461052390611218565b80601f016020809104026020016040519081016040528092919081815260200182805461054f90611218565b801561059c5780601f106105715761010080835404028352916020019161059c565b820191906000526020600020905b81548152906001019060200180831161057f57829003601f168201915b505050505081526020016004820180546105b590611218565b80601f01602080910402602001604051908101604052809291908181526020018280546105e190611218565b801561062e5780601f106106035761010080835404028352916020019161062e565b820191906000526020600020905b81548152906001019060200180831161061157829003601f168201915b5050505050815260200160058201805461064790611218565b80601f016020809104026020016040519081016040528092919081815260200182805461067390611218565b80156106c05780601f10610695576101008083540402835291602001916106c0565b820191906000526020600020905b8154815290600101906020018083116106a357829003601f168201915b505050505081525050905082816000015182602001518360400151846060015185608001518660a001516040516020016107009796959493929190611775565b6040516020818303038152906040529250508080600101915050610322565b50600181511115610746576107438160006001845161073e9190611856565b610c18565b90505b8060405160200161075791906118d6565b60405160208183030381529060405290508091505090565b6000818154811061077f57600080fd5b90600052602060002090600602016000915090508060000180546107a290611218565b80601f01602080910402602001604051908101604052809291908181526020018280546107ce90611218565b801561081b5780601f106107f05761010080835404028352916020019161081b565b820191906000526020600020905b8154815290600101906020018083116107fe57829003601f168201915b50505050509080600101805461083090611218565b80601f016020809104026020016040519081016040528092919081815260200182805461085c90611218565b80156108a95780601f1061087e576101008083540402835291602001916108a9565b820191906000526020600020905b81548152906001019060200180831161088c57829003601f168201915b5050505050908060020180546108be90611218565b80601f01602080910402602001604051908101604052809291908181526020018280546108ea90611218565b80156109375780601f1061090c57610100808354040283529160200191610937565b820191906000526020600020905b81548152906001019060200180831161091a57829003601f168201915b50505050509080600301805461094c90611218565b80601f016020809104026020016040519081016040528092919081815260200182805461097890611218565b80156109c55780601f1061099a576101008083540402835291602001916109c5565b820191906000526020600020905b8154815290600101906020018083116109a857829003601f168201915b5050505050908060040180546109da90611218565b80601f0160208091040260200160405190810160405280929190818152602001828054610a0690611218565b8015610a535780601f10610a2857610100808354040283529160200191610a53565b820191906000526020600020905b815481529060010190602001808311610a3657829003601f168201915b505050505090806005018054610a6890611218565b80601f0160208091040260200160405190810160405280929190818152602001828054610a9490611218565b8015610ae15780601f10610ab657610100808354040283529160200191610ae1565b820191906000526020600020905b815481529060010190602001808311610ac457829003601f168201915b5050505050905086565b60006040518060c0016040528088815260200187815260200186815260200185815260200184815260200183815250905060008190806001815401808255809150506001900390600052602060002090600602016000909190919091506000820151816000019081610b5d919061148f565b506020820151816001019081610b73919061148f565b506040820151816002019081610b89919061148f565b506060820151816003019081610b9f919061148f565b506080820151816004019081610bb5919061148f565b5060a0820151816005019081610bcb919061148f565b5050507f89b578248e931bb3efbfd96797869e3673e73e1e493f0c0846b4b754974de6cd878787878787604051610c07969594939291906110dc565b60405180910390a150505050505050565b6060600084905060008484610c2d9190611856565b67ffffffffffffffff811115610c4657610c45610d42565b5b6040519080825280601f01601f191660200182016040528015610c785781602001600182028036833780820191505090505b5090506000808690505b85811015610d0557838181518110610c9d57610c9c6111ba565b5b602001015160f81c60f81b838381518110610cbb57610cba6111ba565b5b60200101907effffffffffffffffffffffffffffffffffffffffffffffffffffffffffffff1916908160001a9053508180610cf5906118f8565b9250508080600101915050610c82565b508193505050509392505050565b6000604051905090565b600080fd5b600080fd5b600080fd5b600080fd5b6000601f19601f8301169050919050565b7f4e487b7100000000000000000000000000000000000000000000000000000000600052604160045260246000fd5b610d7a82610d31565b810181811067ffffffffffffffff82111715610d9957610d98610d42565b5b80604052505050565b6000610dac610d13565b9050610db88282610d71565b919050565b600067ffffffffffffffff821115610dd857610dd7610d42565b5b610de182610d31565b9050602081019050919050565b82818337600083830152505050565b6000610e10610e0b84610dbd565b610da2565b905082815260208101848484011115610e2c57610e2b610d2c565b5b610e37848285610dee565b509392505050565b600082601f830112610e5457610e53610d27565b5b8135610e64848260208601610dfd565b91505092915050565b60008060008060008060c08789031215610e8a57610e89610d1d565b5b600087013567ffffffffffffffff811115610ea857610ea7610d22565b5b610eb489828a01610e3f565b965050602087013567ffffffffffffffff811115610ed557610ed4610d22565b5b610ee189828a01610e3f565b955050604087013567ffffffffffffffff811115610f0257610f01610d22565b5b610f0e89828a01610e3f565b945050606087013567ffffffffffffffff811115610f2f57610f2e610d22565b5b610f3b89828a01610e3f565b935050608087013567ffffffffffffffff811115610f5c57610f5b610d22565b5b610f6889828a01610e3f565b92505060a087013567ffffffffffffffff811115610f8957610f88610d22565b5b610f9589828a01610e3f565b9150509295509295509295565b60008115159050919050565b610fb781610fa2565b82525050565b6000602082019050610fd26000830184610fae565b92915050565b600081519050919050565b600082825260208201905092915050565b60005b83811015611012578082015181840152602081019050610ff7565b60008484015250505050565b600061102982610fd8565b6110338185610fe3565b9350611043818560208601610ff4565b61104c81610d31565b840191505092915050565b60006020820190508181036000830152611071818461101e565b905092915050565b6000819050919050565b61108c81611079565b811461109757600080fd5b50565b6000813590506110a981611083565b92915050565b6000602082840312156110c5576110c4610d1d565b5b60006110d38482850161109a565b91505092915050565b600060c08201905081810360008301526110f6818961101e565b9050818103602083015261110a818861101e565b9050818103604083015261111e818761101e565b90508181036060830152611132818661101e565b90508181036080830152611146818561101e565b905081810360a083015261115a818461101e565b9050979650505050505050565b600081905092915050565b600061117d82610fd8565b6111878185611167565b9350611197818560208601610ff4565b80840191505092915050565b60006111af8284611172565b915081905092915050565b7f4e487b7100000000000000000000000000000000000000000000000000000000600052603260045260246000fd5b7f4e487b7100000000000000000000000000000000000000000000000000000000600052602260045260246000fd5b6000600282049050600182168061123057607f821691505b602082108103611243576112426111e9565b5b50919050565b60008190508160005260206000209050919050565b6000815461126b81611218565b6112758186611167565b9450600182166000811461129057600181146112a5576112d8565b60ff19831686528115158202860193506112d8565b6112ae85611249565b60005b838110156112d0578154818901526001820191506020810190506112b1565b838801955050505b50505092915050565b60006112ed828461125e565b915081905092915050565b60006020601f8301049050919050565b600082821b905092915050565b6000600883026113457fffffffffffffffffffffffffffffffffffffffffffffffffffffffffffffffff82611308565b61134f8683611308565b95508019841693508086168417925050509392505050565b6000819050919050565b600061138c61138761138284611079565b611367565b611079565b9050919050565b6000819050919050565b6113a683611371565b6113ba6113b282611393565b848454611315565b825550505050565b600090565b6113cf6113c2565b6113da81848461139d565b505050565b5b818110156113fe576113f36000826113c7565b6001810190506113e0565b5050565b601f8211156114435761141481611249565b61141d846112f8565b8101602085101561142c578190505b611440611438856112f8565b8301826113df565b50505b505050565b600082821c905092915050565b600061146660001984600802611448565b1980831691505092915050565b600061147f8383611455565b9150826002028217905092915050565b61149882610fd8565b67ffffffffffffffff8111156114b1576114b0610d42565b5b6114bb8254611218565b6114c6828285611402565b600060209050601f8311600181146114f957600084156114e7578287015190505b6114f18582611473565b865550611559565b601f19841661150786611249565b60005b8281101561152f5784890151825560018201915060208501945060208101905061150a565b8683101561154c5784890151611548601f891682611455565b8355505b6001600288020188555050505b505050505050565b7f7b226964223a2200000000000000000000000000000000000000000000000000600082015250565b6000611597600783611167565b91506115a282611561565b600782019050919050565b7f222c202274656d7065726174757265223a220000000000000000000000000000600082015250565b60006115e3601283611167565b91506115ee826115ad565b601282019050919050565b7f222c202268756d6964697479223a220000000000000000000000000000000000600082015250565b600061162f600f83611167565b915061163a826115f9565b600f82019050919050565b7f222c202277617465724c6576656c223a22000000000000000000000000000000600082015250565b600061167b601183611167565b915061168682611645565b601182019050919050565b7f222c202266697265416c657274223a2200000000000000000000000000000000600082015250565b60006116c7601083611167565b91506116d282611691565b601082019050919050565b7f222c2022736d6f6b65416c657274223a22000000000000000000000000000000600082015250565b6000611713601183611167565b915061171e826116dd565b601182019050919050565b7f227d2c0000000000000000000000000000000000000000000000000000000000600082015250565b600061175f600383611167565b915061176a82611729565b600382019050919050565b6000611781828a611172565b915061178c8261158a565b91506117988289611172565b91506117a3826115d6565b91506117af8288611172565b91506117ba82611622565b91506117c68287611172565b91506117d18261166e565b91506117dd8286611172565b91506117e8826116ba565b91506117f48285611172565b91506117ff82611706565b915061180b8284611172565b915061181682611752565b915081905098975050505050505050565b7f4e487b7100000000000000000000000000000000000000000000000000000000600052601160045260246000fd5b600061186182611079565b915061186c83611079565b925082820390508181111561188457611883611827565b5b92915050565b7f5d00000000000000000000000000000000000000000000000000000000000000600082015250565b60006118c0600183611167565b91506118cb8261188a565b600182019050919050565b60006118e28284611172565b91506118ed826118b3565b915081905092915050565b600061190382611079565b91507fffffffffffffffffffffffffffffffffffffffffffffffffffffffffffffffff820361193557611934611827565b5b60018201905091905056fea26469706673582212202907287f5b9216ec95b8d07bde12c33d3d71fddfeeb579e996d37cd8a0f431fe64736f6c634300081c0033",
  "linkReferences": {},
  "deployedLinkReferences": {}
}